:100000000428FF3FFF3FFF3F03138312A201A30118
:10001000A401A501A601A701A801A901AA01AB019C
:10002000831608148601881406308312AC00D7208A
:100030000130AF007D210C30AF007D21013008057B
:10004000A200A3010030A3050030A30000308818EF
:100050000130F2007208A400A50123082706031D41
:100060003328260822060319502800302306031DD2
:100070003B2801302206031D4128A80A0319A90ABA
:1000800041288230FB00FF30FA00FB0B48284B2848
:10009000FA0B482845288730FA00FA0B4D28000053
:1000A0002208A6002308A70025082B06031D5A28AE
:1000B0002A0824060319782800302506031D622823
:1000C00001302406031D69280130A802031CA9037E
:1000D00069288230FB00FF30FA00FB0B7028732880
:1000E000FA0B70286D288730FA00FA0B752800008B
:1000F0002408AA002508AB0080302906F0008030D3
:100100007002031D85280A30280203189028013048
:10011000AC000130AD0030302807AE00BB21B6285E
:100120000130AC000130AD000A30F4000030F500C1
:100130002808F0002908F100232130307007AE00B4
:10014000BB210130AC000230AD000A30F4000030B9
:10015000F5002808F0002908F10023217808F000B4
:100160007908F10030307007AE00BB210230FC008E
:10017000FF30FB00FF30FA00FC0BBF28C628FB0B4A
:10018000C228C528FA0BC228BF28BC288730FB002C
:10019000FF30FA00FB0BCD28D028FA0BCD28CA2857
:1001A0009330FA00FA0BD22800001E28D62820220D
:1001B000202220222C08A0002C0884008417801103
:1001C000001100108013001380120012841380119C
:1001D0000011001080130013801200128016001608
:1001E0008015801120228015801120228015801119
:1001F0002022801600128015801120228001801696
:1002000080158011800180178015801120228001C7
:100210000016801580118001801580112022800138
:100220008015801100168015801120228001801514
:10023000801100168016001780178015801120226B
:100240000130A100080003138312FD01F901F80138
:10025000710870040319003471087506FA00FA1B5E
:10026000FD09FB01F51F3929F409F509F40A031901
:10027000F50AF11F4029F009F109F00A0319F10A02
:1002800071087504FA00FA1B5529F2217B186829B8
:10029000FD1F0034F009F109F00A0319F10AF80909
:1002A000F909F80A0319F90A0034F51F6429F11B4A
:1002B00060297108F9007008F800F101F00148297F
:1002C000F101F001F00A0034F109F009FB0A4529B7
:1002D000F80A0319F90A74087802031D48297508F9
:1002E0007902031D4829F901F801F00A0319F10AFE
:1002F000F11F48290000FF3408000313831220086F
:1003000084002F0803198429801100118013001321
:1003100080120012AF1B80172F1B0017AF1A801618
:100320002F1A001621080319972900119829001582
:10033000801539222F0803199D298011001180137F
:10034000001380120012AF1980172F190017AF1871
:1003500080162F18001621080319B0290011B129A1
:10036000001580153922801121080319B92920228E
:10037000BA2932220800CD29803003138312AC0041
:10038000E029C030AC00E0299430AC00E029D43042
:10039000AC00E0298030AC00E029031383122C0864
:1003A000013A0319BC292C08023A0319C1292C0867
:1003B000033A0319C4292C08043A0319C729CA2986
:1003C0002D03F0002C08F0077008AC000130A100EC
:1003D0007008AF007D21A1012E08AF007D21013002
:1003E000A100080003138312710DF80DF90D7408B4
:1003F000F8027508031C750FF902F00DF10D0F30AE
:10040000FC00710DF80DF90D7408701C0D2AF8022E
:100410007508031C750FF902122AF80775080318EE
:10042000750FF907F00DF10DFC0B012A70181E2A4B
:100430007408F80775080318750FF907000008001D
:100440000F3003138312FB00FF30FA00FB0B292A45
:100450002C2AFA0B292A262A3E30FA00FA0B2E2AD9
:1004600000000800213003138312FA00FA0B362A29
:100470000800000000000800FF3FFF3FFF3FFF3F74
:02400E007A3FF7
:00000001FF
